:100000000C94AE010C94B6000C94B8000C94BA0099
:100010000C94BC000C94BE000C94C0000C94C20064
:100020000C94C4000C94C6000C94C8000C94CA0034
:100030000C94CC000C94CE000C94D0000C94D20004
:100040000C94D4000C94D6000C94D8000C94DA00D4
:100050000C94DC000C94DE000C94E0000C94E200A4
:100060000C94E4000C94E6000C94E8000C94EA0074
:100070000C94EC000C94EE000C94F0000C94F20044
:100080000C94F4000C94F6000C94F8000C94FA0014
:100090000C94FC000C94FE000C9400010C940201E2
:1000A0000C9404010C9406010C9408010C940A01B0
:1000B0000C940C010C940E010C9410010C94120180
:1000C0000C9414010C9416010C9418010C941A0150
:1000D0000C941C010C941E010C9420010C94220120
:1000E0000C9424010C9426010C9428010C942A01F0
:1000F0000C942C010C942E010C9430010C943201C0
:100100000C9434010C9436010C9438010C943A018F
:100110000C943C010C943E010C9440010C9442015F
:100120000C9444010C9446010C9448010C944A012F
:100130000C944C010C944E010C9450010C945201FF
:100140000C9454010C9456010C9458010C945A01CF
:100150000C945C010C945E010C9460010C9462019F
:100160000C9464010C9466010C9468010C94AE012B
:100170000C94AE010C94AE010C94AE010C94AE0143
:100180000C94AE010C94AE010C94AE010C94AE0133
:100190000C94AE010C94AE010C94AE010C94AE0123
:1001A0000C94F10C0C94AE010C94AE010C94AE01C5
:1001B0000C94AE010C94AE010C94AE010C94AE0103
:1001C0000C94AE010C94AE010C94AE010C94AE01F3
:1001D0000C94AE010C94AE010C94AE010C94AE01E3
:1001E0000C94AE010C94AE010C94AE010C94AE01D3
:1001F0000C94AE010C94AE010C94AE010C94AE01C3
:100200000C94AE010C94AE010C94AE010C94AE01B2
:100210000C94AE010C94AE010C94AE010C94AE01A2
:100220000C94AE010C94AE010C94AE010C94AE0192
:100230000C94AE010C94AE010C94AE010C94AE0182
:100240000C94AE010C94AE010C94AE010C94AE0172
:100250000C94AE010C94AE010C94AE010C94AE0162
:100260000C94AE010C94AE010C94AE010C94AE0152
:100270000C94AE010C94AE010C94AE010C94AE0142
:100280000C94AE010C94AE010C94AE010C94AE0132
:100290000C94AE010C94AE010C94AE010C94AE0122
:1002A0000C94AE010C94AE010C94AE010C94AE0112
:1002B0000C94AE010C94AE010C94AE010C94AE0102
:1002C0000C94AE010C94AE010C94AE010C94AE01F2
:1002D0000C94AE010C94AE010C94AE010C94AE01E2
:1002E0000C94AE010C94AE010C94AE010C94AE01D2
:1002F0000C94AE010C94AE010C94AE010C94AE01C2
:100300000C94AE010C94AE010C94AE010C94AE01B1
:100310000C94AE010C94AE010C94AE010C94AE01A1
:100320000C94AE010C94AE010C94AE010C94AE0191
:100330000C94AE010C94AE010C94AE010C94AE0181
:100340000C94AE010C94AE010C94AE010C94AE0171
:100350000C94AE010C94AE010C94AE0111241FBE9E
:10036000CFEFDFE3DEBFCDBF00E00CBF12E2A0E0C5
:10037000B0E2E6EFF3EB00E00BBF02C007900D9296
:10038000A63FB107D9F715E3A6EFB2E201C01D926F
:10039000A73FB107E1F70E94D1010C94F9590C94E1
:1003A00000008F929F92AF92BF92CF92DF92EF9216
:1003B000FF920F931F93CF93DF930F92CDB7DEB7CA
:1003C0000E94EE050E94591F0F920F924DB75EB723
:1003D0004F5F5F4F88E292E02DE534E2E6EFF2E214
:1003E00063E070E0DA016D937C9360E070E0A90156
:1003F00022E002E010E07F010F2EF8E6AF2EF1E0E0
:10040000BF2EF0E0CF2EF0E0DF2EF02D88249924CF
:100410000E943E480F900F9020E030E282E0B90148
:100420009E012F5F3F4FA9010E94D54A0E944420A0
:1004300080E090E00F90DF91CF911F910F91FF909E
:10044000EF90DF90CF90BF90AF909F908F900895E6
:10045000CF93DF9300D0CDB7DEB78A839B830E9412
:10046000DF050E946E200E9480020E94010360E06E
:1004700072EC81E090E00E94C30A81E0898317C09A
:1004800089810E942F0A80E060E040E024E630E0AD
:100490000E94FB4D89810E94540A80E060E040E0A8
:1004A00024E630E00E94FB4D89818F5F898389813A
:1004B000883030F381E089831FC099E08981292F3A
:1004C000281B822F0E942F0A80E060E040E024E693
:1004D00030E00E94FB4D99E08981292F281B822F53
:1004E0000E94540A80E060E040E024E630E00E9490
:1004F000FB4D89818F5F898389818830F0F2BDCF80
:100500008F929F92AF92BF92CF92DF92EF92FF9223
:100510000F931F93CF93DF930F92CDB7DEB70F9258
:100520000F924DB75EB74F5F5F4F81E993E025ECC7
:1005300035E2EEE5F4E263E070E0DA016D937C937E
:1005400060E070E0A90124E004E010E07F010F2EDC
:10055000F8E6AF2EF1E0BF2EF0E0CF2EF0E0DF2E78
:10056000F02D882499240E943E480F900F9026E099
:1005700030E284E0B9019E012F5F3F4FA9010E9444
:10058000D54A0F920F924DB75EB74F5F5F4F8FE125
:1005900093E02DE237E2E6ECF5E263E070E0DA01A9
:1005A0006D937C9360E070E0A90123E003E010E02C
:1005B0007F010F2EF8E6AF2EF1E0BF2EF0E0CF2E38
:1005C000F0E0DF2EF02D882499240E943E480F9001
:1005D0000F902FE030E283E0B9019E012F5F3F4F83
:1005E000A9010E94D54A0F90DF91CF911F910F91E1
:1005F000FF90EF90DF90CF90BF90AF909F908F9043
:100600000895CF93DF930F92CDB7DEB780E090E0EF
:100610000E94123280937F279093802780917F27BA
:100620009091802726E030E2B9019E012F5F3F4F75
:10063000A9010E94631C0F90DF91CF910895CF9381
:10064000DF93CDB7DEB72A97CDBFDEBF89879A8704
:1006500019821A821B821C8280E00E949E0A8D836E
:1006600081E00E949E0A8E8382E00E949E0A8F8310
:1006700083E00E949E0A88878D81813079F4898188
:10068000882361F481E080937E2780917F27909179
:1006900080272EE737E2B9010E9477348E818130BE
:1006A00079F48A81882361F482E080937E278091A7
:1006B0007F27909180272EE737E2B9010E94773497
:1006C0008F81813079F48B81882361F483E080937A
:1006D0007E2780917F27909180272EE737E2B9010E
:1006E0000E9477348885813079F48C81882361F485
:1006F00084E080937E2780917F27909180272EE74A
:1007000037E2B9010E9477348D8189838E818A8393
:100710008F818B8388858C8382E390E00E949B4D40
:100720009BCFCF93DF93CDB7DEB72997CDBFDEBF89
:100730008887998788E190E20E946D0B0E94F503FB
:1007400088E190E20E946D0B88EE93E00E949B4D41
:1007500082E090E0A0E0B0E089839A83AB83BC8321
:1007600080917F27909180279E01295F3F4F64E60B
:1007700070E0A9010E9438338D839E838F81882386
:10078000A1F48D819E81009781F08D819E81FC0175
:100790008081882F90E0A0E0B0E089839A83AB83CA
:1007A000BC8388E190E20E946D0B89819A81AB81C4
:1007B000BC8183309105A105B10569F084309105B4
:1007C000A105B10559F082309105A105B10549F4A3
:1007D0000E94070409C00E94770406C00E94D50445
:1007E00003C00E94F5030000BBCFCF93DF93CDB7CA
:1007F000DEB78EE297E22CE130E2B9010E94E0110F
:100800008EE297E20E946D0BDF91CF910895CF9316
:10081000DF9300D00F92CDB7DEB78EE297E221E5ED
:1008200030E2B9010E94E0110E947821CC01A0E0E1
:10083000B0E089839A83AB83BC8389819A81AB8141
:10084000BC8124E630E040E050E0BC01CD010E94D4
:100850001357DA01C901805D80933A2789819A8113
:10086000AB81BC8124E630E040E050E0BC01CD012A
:100870000E941357DC01CB012AE030E040E050E059
:10088000BC01CD010E941357DA01C901805D80933C
:100890003C2789819A81AB81BC812AE030E040E02D
:1008A00050E0BC01CD010E941357DC01CB01805DFB
:1008B00080933D2788EE93E0A0E0B0E089839A839F
:1008C000AB83BC838AE497E229813A814B815C81C6
:1008D000BA01A90124E00E941A058EE297E20E9463
:1008E0006D0B2496CDBFDEBFDF91CF910895CF93DE
:1008F000DF9300D00F92CDB7DEB78EE297E224E708
:1009000030E2B9010E94E0118091562C882F90E0CE
:10091000A0E0B0E089839A83AB83BC8389819A810C
:10092000AB81BC812AE030E040E050E0BC01CD0169
:100930000E941357DA01C901805D809338278981AD
:100940009A81AB81BC812AE030E040E050E0BC01FC
:10095000CD010E941357DC01CB01805D80933927C4
:100960000E94F905DC01CB0120E432E44FE050E0C5
:10097000BC01CD010E94135729833A834B835C83CA
:1009800085E497E229813A814B815C81BA01A90112
:1009900023E00E941A058EE297E20E946D0B2496D6
:1009A000CDBFDEBFDF91CF910895CF93DF9300D00D
:1009B0000F92CDB7DEB78EE297E225E930E2B901BA
:1009C0000E94E01180910E2E90910F2EA091102E7A
:1009D000B091112E89839A83AB83BC8386E397E21F
:1009E00029813A814B815C81BA01A90129E00E94E9
:1009F0001A0580914A2C90914B2CA0914C2CB091CF
:100A00004D2C89839A83AB83BC8388E497E2298148
:100A10003A814B815C81BA01A90129E00E941A0543
:100A20008EE297E20E946D0B2496CDBFDEBFDF9170
:100A3000CF910895CF93DF93CDB7DEB72C97CDBF7D
:100A4000DEBF8E839F83488759876A877B872C8781
:100A500081E090E0A0E0B0E08A839B83AC83BD831B
:100A6000198215C08A819B81AC81BD812AE030E06A
:100A700040E050E0BC01CD010E94F456DC01CB0106
:100A80008A839B83AC83BD8389818F5F89838981BE
:100A9000282F30E08C85882F90E0019728173907A0
:100AA0000CF33BC088859985AA85BB852A813B814B
:100AB0004C815D81BC01CD010E941357DA01C9014F
:100AC000282F205D8E819F81FC0120838E819F8154
:100AD00001968E839F8388859985AA85BB852A8107
:100AE0003B814C815D81BC01CD010E941357DC012B
:100AF000CB0188879987AA87BB878A819B81AC8134
:100B0000BD812AE030E040E050E0BC01CD010E9410
:100B100013572A833B834C835D838A819B81AC81FD
:100B2000BD810097A105B10509F0BCCF2C96CDBFC2
:100B3000DEBFDF91CF910895CF93DF930F920F9295
:100B4000CDB7DEB789839A830F900F90DF91CF9155
:100B50000895CF93DF930F920F92CDB7DEB78983BD
:100B60009A830F900F90DF91CF910895CF93DF93E9
:100B7000CDB7DEB7DF91CF910895CF93DF93CDB797
:100B8000DEB7DF91CF910895CF93DF93CDB7DEB776
:100B9000DF91CF910895CF93DF930F920F92CDB74E
:100BA000DEB789839A830F900F90DF91CF910895DC
:100BB000CF93DF93CDB7DEB7DF91CF910895CF9379
:100BC000DF93CDB7DEB70E94400C0E94D60C0E9486
:100BD000E50C0E94650CDF91CF910895CF93DF93D0
:100BE000CDB7DEB780EA90E0FC011282DF91CF91B1
:100BF0000895CF93DF9300D00F92CDB7DEB784E096
:100C00000E947607DC01CB0189839A83AB83BC8386
:100C100089819A81AB81BC81BC01CD012496CDBF75
:100C2000DEBFDF91CF910895CF93DF93CDB7DEB7CD
:100C30002597CDBFDEBF80E590E0FC0185818F71F7
:100C400089830E94DB06DC01CB018A839B83AC8312
:100C5000BD838981282F30E040E050E08A819B816C
:100C6000AC81BD81BC01CD010E94F456DC01CB01F9
:100C70008A839B83AC83BD838A819B81AC81BD8148
:100C8000BC01CD012596CDBFDEBFDF91CF91089588
:100C9000CF93DF93CDB7DEB72C97CDBFDEBF69878B
:100CA0007A878B879C8789859A85AB85BC858038B8
:100CB00026E9920728E9A20720E0B20760F08985BB
:100CC0009A85AB85BC858130E2EC9E07EBEEAE07E2
:100CD000EBE0BE0710F081E040C00E94DB06DC01C3
:100CE000CB0189839A83AB83BC8329853A854B8565
:100CF0005C8589819A81AB81BC81281739074A07B5
:100D00005B0710F480E029C089859A85AB85BC8596
:100D100029813A814B815C81BC01CD010E9413572E
:100D20002D833E834F8358878D819E81AF81B88507
:100D300080329105A105B10510F080E00EC080E57C
:100D400090E020E530E0F9012581322F307C2D81C3
:100D50002F71232BFC01258381E02C96CDBFDEBFB4
:100D6000DF91CF910895CF93DF930F920F92CDB77C
:100D7000DEB780E590E0FC018581807C8A838A81F2
:100D8000882F90E08038910541F0803C910541F03A
:100D9000009749F481E0898308C082E0898305C017
:100DA00083E0898302C084E0898389810F900F905A
:100DB000DF91CF910895CF93DF93CDB7DEB725971D
:100DC000CDBFDEBF0E94B3068D838D81843021F4B8
:100DD00080E090E0DC0124C08D81813049F480E81E
:100DE00094E8AEE1B0E089839A83AB83BC8314C0FE
:100DF0008D81823049F480E092E1AAE7B0E08983F6
:100E00009A83AB83BC8308C00E940A0ADC01CB0131
:100E100089839A83AB83BC8389819A81AB81BC81AE
:100E2000BC01CD012596CDBFDEBFDF91CF910895E6
:100E3000CF93DF930F92CDB7DEB789838981882F57
:100E400090E08230910569F083309105A1F080E552
:100E500090E020E530E0F90125812F73FC01258326
:100E600014C080E590E020E530E0F901258120689C
:100E7000FC0125830AC080E590E020E530E0F9011F
:100E80002581206CFC01258300000F90DF91CF911C
:100E90000895CF93DF930F920F92CDB7DEB789837A
:100EA0006A838981813091F480E490E020E430E02D
:100EB000F9012181422F2A81222F30E0220F331F96
:100EC000220F331F242BFC0121830BC080E490E010
:100ED00020E430E0F90131812A812370232BFC01C9
:100EE00021830F900F90DF91CF910895CF93DF93DF
:100EF000CDB7DEB72D97CDBFDEBF8D8780E490E004
:100F0000FC0181818F838F81880F880F88878F8173
:100F100083708F838F81823019F484E08D8308C0C1
:100F20008F81833019F482E08D8302C081E08D834C
:100F30008F81882F90E081709070882319F082E073
:100F40008E8302C081E08E8319821A821B821C82EA
:100F50000E945908DC01CB0189879A87AB87BC873F
:100F60008D85882F90E08230910561F18330910565
:100F70002CF48130910509F452C08FC08330910563
:100F800029F08430910509F44AC087C08885282F4C
:100F900030E081E090E002C0880F991F2A95E2F7C7
:100FA0009C01442737FD4095542F89859A85AB8550
:100FB000BC85BC01CD010E94135729833A834B8322
:100FC0005C836BC08885282F30E081E090E002C010
:100FD000880F991F2A95E2F79C01442737FD409519
:100FE000542F89859A85AB85BC85BC01CD010E94B3
:100FF000135729833A834B835C838D81282F30E0FC
:1010000040E050E089819A81AB81BC81BC01CD0177
:101010000E94135729833A834B835C833EC08885A3
:10102000282F30E081E090E002C0880F991F2A95B8
:10103000E2F79C01442737FD4095542F89859A8516
:10104000AB85BC85BC01CD010E94135729833A832F
:101050004B835C838D81282F30E040E050E0898114
:101060009A81AB81BC81BC01CD010E9413572983B9
:101070003A834B835C838E81282F30E040E050E040
:1010800089819A81AB81BC81BC01CD010E9413573B
:1010900029833A834B835C83000089819A81AB81E9
:1010A000BC81BC01CD012D96CDBFDEBFDF91CF91BC
:1010B0000895CF93DF93CDB7DEB72597CDBFDEBFC1
:1010C0000E945A098D838D81863021F480E090E062
:1010D000DC0145C08D81882F90E083309105B9F007
:1010E0008430910524F48230910541F02BC0843086
:1010F0009105B1F085309105E1F024C080E098E4DD
:10110000A8EEB1E089839A83AB83BC8324C080E0DE
:101110009DE7A0E0B0E089839A83AB83BC831BC0CA
:101120000E940A0ADC01CB0189839A83AB83BC83CA
:1011300012C00E941406DC01CB0189839A83AB8321
:10114000BC8309C080E894E8AEE1B0E089839A836B
:10115000AB83BC83000089819A81AB81BC81BC01D7
:10116000CD012596CDBFDEBFDF91CF910895CF93FE
:10117000DF9300D000D0CDB7DEB78C836D837E8344
:101180008D819E818A839B838C81882F90E0833020
:101190009105A1F0843091053CF481309105B9F0BE
:1011A0008230910541F016C08430910551F08530B0
:1011B000910551F00FC082E089830EC084E08983DD
:1011C0000BC088E0898308C080E1898305C081E085
:1011D000898302C080E030C080E590E020E530E007
:1011E000F90130812981232BFC0120838A819B8195
:1011F0000097E9F480E590E0FC01918189819823D2
:101200008981981711F481E017C080E015C080E54E
:1012100090E0FC019181898198238981981711F4CC
:1012200081E00AC08A819B8101978A839B838A819E
:101230009B81009761F780E02696CDBFDEBFDF91EE
:10124000CF910895CF93DF930F920F92CDB7DEB772
:101250008A838A81882F90E08330910589F08430D9
:10126000910524F48230910541F013C0843091053A
:1012700051F08530910551F00CC081E089830BC09D
:1012800082E0898308C083E0898305C084E0898384
:1012900002C01982000084E390E028EDFC01208365
:1012A00080E490E02981FC0120830F900F90DF9172
:1012B000CF910895CF93DF930F920F92CDB7DEB702
:1012C00080E490E0FC0180818A838A81882F90E00D
:1012D00082309105B1F08330910534F4009759F0D4
:1012E0008130910559F016C08330910569F0843042
:1012F000910569F00FC081E089830FC082E0898386
:101300000CC083E0898309C084E0898306C085E03E
:10131000898303C086E08983000089810F900F9044
:10132000DF91CF910895CF93DF930F92CDB7DEB7C2
:10133000898380E590E020E530E0F9012281207F7B
:10134000FC0122838981882F90E08130910521F072
:101350008230910559F01CC080E590E020E530E036
:10136000F90122812260FC0122831CC080E590E00B
:1013700020E530E0F90122812360FC01228380E531
:1013800090E020E530E0F9012281FC0122830AC0CF
:1013900080E590E020E530E0F9012281207FFC012A
:1013A000228300000F90DF91CF910895CF93DF93B8
:1013B0000F920F92CDB7DEB780E590E0FC018281FD
:1013C0008F708A838A81882F90E083309105B1F0F5
:1013D0008430910534F4009759F08230910559F02A
:1013E00010C08730910551F08B30910539F009C05C
:1013F00083E0898309C081E0898306C082E0898314
:1014000003C084E08983000089810F900F90DF91F1
:10141000CF910895CF93DF930F92CDB7DEB780E5DC
:1014200090E0FC0182818F7089838981882329F46F
:1014300080E098E4A8EEB1E00CC08981813029F405
:1014400080E090E8A0E0B0E004C080E094E2A4EF87
:10145000B0E0BC01CD010F90DF91CF910895CF9303
:10146000DF930F920F92CDB7DEB78A838A818823EC
:1014700019F48FEF89830EC08A81882F90E09C0138
:101480002150304081E090E002C0880F991F2A95DA
:10149000E2F7898380E696E02981FC0126830F909C
:1014A0000F90DF91CF910895CF93DF930F920F921A
:1014B000CDB7DEB78A838A81882319F48FEF8983B9
:1014C0000EC08A81882F90E09C012150304081E03D
:1014D00090E002C0880F991F2A95E2F7898380E681
:1014E00096E02981FC0125830F900F90DF91CF9129
:1014F0000895CF93DF930F920F92CDB7DEB78A8313
:101500008A81882319F48FEF89830EC08A81882FFE
:1015100090E09C012150304081E090E002C0880FB3
:10152000991F2A95E2F7898380E696E02981FC01DC
:1015300027830F900F90DF91CF910895CF93DF9382
:1015400000D0CDB7DEB78B838B81282F30E081E0D0
:1015500090E0022E02C0880F991F0A94E2F7898357
:1015600080E496E0FC0180858A839A8189818923C1
:10157000882311F481E001C080E02396CDBFDEBF57
:10158000DF91CF910895CF93DF93CDB7DEB760970A
:10159000CDBFDEBF6D877E878F87988B80E496E016
:1015A00089839A8380EA98E08B839C8389819A81DE
:1015B00028E0FC01258389819A8128E0FC012183B0
:1015C00089819A8124E0FC0122838B819C81FC012A
:1015D00013828B819C8123E0FC01258381E00E94A2
:1015E0007607DC01CB018D839E83AF83B8878D8125
:1015F0009E81AF81B8852D853E854F855889BC0178
:10160000CD010E941357DA01C9010197A109B1095F
:10161000689413F8B695A795979587951694D1F782
:1016200089879A87AB87BC8729858B819C81FC0140
:10163000268389859A85892F9927282F8B819C81DC
:10164000FC0127838B819C8128E1FC012483609627
:10165000CDBFDEBFDF91CF910895CF93DF9300D050
:10166000CDB7DEB78B8380EA98E089839A83000048
:1016700089819A81FC018181882F90E0807290702D
:101680000097B1F389819A812B81FC0120832396F5
:10169000CDBFDEBFDF91CF910895CF93DF9300D010
:1016A000CDB7DEB780EA98E089839A8304C082E0F0
:1016B00090E00E949B4D89819A81FC018181882361
:1016C000B4F389819A81FC0180818B838B8123967D
:1016D000CDBFDEBFDF91CF910895CF93DF930F92FF
:1016E0000F92CDB7DEB789839A830CC089819A8126
:1016F000FC01208189819A81019689839A83822FB6
:101700000E942D0B89819A81FC018081882371F7C9
:101710000F900F90DF91CF910895CF93DF93CDB7C6
:10172000DEB72897CDBFDEBF8B839C834D835E835E
:101730006F83788719828B819C81FC01108201C0A4
:1017400000000E944D0B8A838A818D3019F08A81B6
:101750008A30F1F40F920F928DB79EB701962BEB62
:1017600030E2FC01208331830E94230C0F900F9004
:101770008981882F90E02B813C81820F931FFC018F
:10178000108200002896CDBFDEBFDF91CF91089573
:101790008A818830E9F489818823D1F00F920F92F1
:1017A0008DB79EB701962DEB30E2FC01208331838B
:1017B0000E94230C0F900F90898181508983898129
:1017C000882F90E02B813C81820F931FFC011082B7
:1017D0008A810E94850E882309F4B2CF8A81282F3E
:1017E00030E000D00F928DB79EB7019641EC50E2E9
:1017F000FC0140835183FC01228333830E94230C2C
:101800000F900F900F900F908981882F90E02B817F
:101810003C81820F931F2A81FC01208389818F5F85
:1018200089838981282F30E040E050E08D819E81BE
:10183000AF81B885281739074A075B0708F480CFBE
:101840008D8189837DCFCF93DF930F920F92CDB798
:10185000DEB7CE010A9689839A8329813A8181E88D
:1018600097E248855985BA01A9010E94355781E858
:1018700097E20E946D0B0F900F90DF91CF9108952A
:10188000CF93DF93CDB7DEB782E06FEF7FEF0E949B
:10189000B70882E00E94180760E078E488EE91E0E3
:1018A0000E94480685E06FEF7FEF0E94B70885E051
:1018B0000E94220981E060E00E94490782E060E026
:1018C0000E944907DF91CF910895CF93DF93CDB761
:1018D000DEB72897CDBFDEBF80E098E026E0FC01B0
:1018E000208380E098E0FC01118280E098E0FC0118
:1018F000128280E098E0FC01138281E00E9476076A
:10190000DC01CB0189839A83AB83BC8389819A8173
:10191000AB81BC8180509841AC4FBF4F880F991F5D
:10192000AA1FBB1F20E030ED47E050E0BC01CD0115
:101930000E9413572D833E834F83588780E098E0A1
:101940002D813E81FC0126A337A380E098E022E0B0
:10195000FC01268380E098E024E0FC01218780E000
:1019600098E024E0FC01208780EA90E020EA30E063
:10197000F90122812260FC01228380E098E028E0C6
:10198000FC01218780E098E028E0FC012087289670
:10199000CDBFDEBFDF91CF910895CF93DF93CDB759
:1019A000DEB70E94A720DF91CF910895CF93DF93F8
:1019B000CDB7DEB780E696E02FEFFC01218380E013
:1019C0000E94540ADF91CF910895CF93DF93CDB752
:1019D000DEB780E496E02FEFFC012283DF91CF9108
:1019E00008950F920FB60F921F9211242F923F92DB
:1019F0004F925F926F927F928F929F92AF92BF921F
:101A0000CF92DF92EF92FF920F931F932F933F930A
:101A10004F935F936F937F938F939F93AF93BF93F6
:101A2000CF93DF93EF93FF930CB70F9308B70F9308
:101A300009B70F930AB70F930BB70F930091072EB7
:101A400003950093072E013041F4ADB7BEB7C091A6
:101A5000082ED091092EA993B9930E94CD0C0E9413
:101A60008C1F0F910BBF0F910ABF0F9109BF0F91F0
:101A700008BF0F910CBFFF91EF91DF91CF91BF9104
:101A8000AF919F918F917F916F915F914F913F9116
:101A90002F911F910F91FF90EF90DF90CF90BF900B
:101AA000AF909F908F907F906F905F904F903F90FE
:101AB0002F901F900F900FBE0F9018950FB7F894AE
:101AC00008950FBF0895CF93DF930F920F92CDB774
:101AD000DEB78A838A81813430F08A818B3518F4AD
:101AE00081E090E002C080E090E08130910571F0EB
:101AF0008A81813630F08A818B3718F481E090E05A
:101B000002C080E090E08130910519F481E090E01E
:101B100002C080E090E0898389810F900F90DF916F
:101B2000CF910895CF93DF930F920F92CDB7DEB789
:101B30008A838A81813430F08A818B3518F481E080
:101B400090E002C080E090E08130910571F08A81E0
:101B5000813630F08A818B3718F481E090E002C042
:101B600080E090E08130910519F481E090E002C0BE
:101B700080E090E08130910571F08A81803330F00F
:101B80008A818A3318F481E090E002C080E090E01E
:101B90008130910519F481E090E002C080E090E08E
:101BA000898389810F900F90DF91CF910895CF9312
:101BB000DF930F920F92CDB7DEB78A838A81813689
:101BC00030F08A818B3718F481E090E002C080E029
:101BD00090E0898389810F900F90DF91CF910895D4
:101BE000CF93DF930F920F92CDB7DEB78A838A81AE
:101BF000813430F08A818B3518F481E090E002C0A6
:101C000080E090E0898389810F900F90DF91CF91E0
:101C10000895CF93DF930F920F92CDB7DEB78A83EB
:101C20008A81803330F08A818A3318F481E090E031
:101C300002C080E090E0898389810F900F90DF914E
:101C4000CF910895CF93DF930F920F92CDB7DEB768
:101C50008A838A81803318F08A818A3360F08A818E
:101C6000813418F08A81873430F08A81813630F0EF
:101C70008A81873618F481E090E002C080E090E02D
:101C8000898389810F900F90DF91CF910895CF9331
:101C9000DF930F920F92CDB7DEB78A838A818032AD
:101CA00019F08A81893019F481E090E002C080E067
:101CB00090E0898389810F900F90DF91CF910895F3
:101CC000CF93DF930F920F92CDB7DEB78A838A81CD
:101CD000803279F08A818D3061F08A818A3049F0D2
:101CE0008A818C3031F08A81893019F08A818B3079
:101CF00019F481E090E002C080E090E0898389815E
:101D00000F900F90DF91CF910895CF93DF930F92B3
:101D10000F92CDB7DEB78A838A81803230F08A8114
:101D20008F3718F481E090E002C080E090E0898372
:101D300089810F900F90DF91CF910895CF93DF931A
:101D40000F920F92CDB7DEB78A838A81813230F04D
:101D50008A818F3718F481E090E002C080E090E043
:101D6000898389810F900F90DF91CF910895CF9350
:101D7000DF930F920F92CDB7DEB78A838A818032CC
:101D800030F08A818F3718F481E090E002C080E063
:101D900090E08130910509F055C08A81803279F058
:101DA0008A818D3061F08A818A3049F08A818C3055
:101DB00031F08A81893019F08A818B3019F481E001
:101DC00090E002C080E090E00097E1F58A818134E4
:101DD00030F08A818B3518F481E090E002C080E019
:101DE00090E08130910571F08A81813630F08A81EE
:101DF0008B3718F481E090E002C080E090E0813001
:101E0000910519F481E090E002C080E090E081301B
:101E1000910571F08A81803330F08A818A3318F419
:101E200081E090E002C080E090E08130910519F4FB
:101E300081E090E002C080E090E0009719F481E03A
:101E400090E002C080E090E0898389810F900F903C
:101E5000DF91CF910895CF93DF930F920F92CDB77B
:101E6000DEB78A838A8188231CF08A81803218F049
:101E70008A818F3719F481E090E002C080E090E021
:101E8000898389810F900F90DF91CF910895CF932F
:101E9000DF930F920F92CDB7DEB78A838A818134A8
:101EA00030F08A818B3518F481E090E002C080E048
:101EB00090E08130910519F48A81805E01C08A81A9
:101EC000898389810F900F90DF91CF910895CF93EF
:101ED000DF930F920F92CDB7DEB78A838A81813666
:101EE00030F08A818B3718F481E090E002C080E006
:101EF00090E08130910519F48A81805201C08A8175
:101F0000898389810F900F90DF91CF910895CF93AE
:101F1000DF93CDB7DEB72597CDBFDEBF8C836D8352
:101F20008C81813630F08C818B3718F481E090E021
:101F300002C080E090E08130910519F48C818052DC
:101F400001C08C8189838D81813630F08D818B3702
:101F500018F481E090E002C080E090E081309105CB
:101F600019F48D81805201C08D818A8381E029819D
:101F70009A81291709F080E08B838B812596CDBF4C
:101F8000DEBFDF91CF910895CF93DF93CDB7DEB75A
:101F9000DF91CF910895CF93DF9300D0CDB7DEB717
:101FA00089839A836B8389819A8160E04B810E9447
:101FB000DF0F2396CDBFDEBFDF91CF910895CF9382
:101FC000DF93CDB7DEB72C97CDBFDEBF89879A8769
:101FD0006B874C878C85882309F461C089859A8535
:101FE000009709F45EC01A821F8208C01A829A8183
:101FF0008B85892B8A838F818F5F8F838F81882345
:10200000A9F38C858983188689859A858D839E831B
:1020100088858823C9F088858F8310C08D819E8133
:102020002B85FC0120838D819E8101968D839E836B
:102030008981815089838F818F5F8F8389818823F4
:1020400019F08F81882351F38D819E818B839C832E
:102050000DC08B819C812A81FC0120838B819C8116
:1020600001968B839C838981815089838981882310
:1020700081F78B819C818D839E830DC08D819E8194
:102080002B85FC0120838D819E8101968D839E830B
:102090008981815089838981882381F703C0000069
:1020A00001C000002C96CDBFDEBFDF91CF91089517
:1020B000CF93DF93CDB7DEB76297CDBFDEBF8E87FC
:1020C0009F87688B798B4A8B8A89882309F488C01B
:1020D0008E859F85009709F485C088899989009726
:1020E00009F482C08A8989838E859F858E839F8328
:1020F00088899989888799871B861C8681E02B852A
:102100009C85291709F080E08D878D85813009F045
:1021100063C08B85882309F18B858A8718C08885E1
:102120009985FC0120818E819F81FC0120838E8115
:102130009F8101968E839F838885998501968887E4
:1021400099878981815089838A858F5F8A87898170
:10215000882319F08A85882311F38E819F818A83D1
:102160009B83888599858C839D8315C08C819D81F7
:10217000FC0120818A819B81FC0120838A819B81D3
:1021800001968A839B838C819D8101968C839D839C
:102190008981815089838981882341F78A819B8144
:1021A0008E839F838C819D818887998715C08885C0
:1021B0009985FC0120818E819F81FC0120838E8185
:1021C0009F8101968E839F83888599850196888754
:1021D00099878981815089838981882341F705C046
:1021E000000003C0000001C000006296CDBFDEBF4A
:1021F000DF91CF910895CF93DF93CDB7DEB763978B
:10220000CDBFDEBF8F87988B698B7A8B4B8B8B8989
:10221000882311F481E0ACC08F859889009711F470
:1022200080E0A6C089899A89009711F480E0A0C057
:1022300081E08B878B8989838B89882F90E02F851C
:102240003889820F931F8E839F838B89882F90E01C
:1022500029893A89820F931F888799871C861D8652
:1022600081E02C859D85291709F080E08E878E8579
:10227000813009F076C08C85882339F18C858A8776
:102280001BC08E819F8101978E839F83888599854E
:102290000197888799878E819F81FC01208188859D
:1022A0009985FC018081281709F01B86898181505E
:1022B00089838A8581508A878B85813031F4898131
:1022C000882319F08A858823E1F68B85813009F00F
:1022D00048C08E819F818A839B83888599858C8362
:1022E0009D8318C08A819B8101978A839B838C81FF
:1022F0009D8101978C839D838A819B81FC01208134
:102300008C819D81FC018081281709F01B868981C1
:10231000815089838B85813019F48981882311F755
:102320008A819B818E839F838C819D8188879987F9
:1023300018C08E819F8101978E839F8388859985A0
:102340000197888799878E819F81FC0120818885EC
:102350009985FC018081281709F01B8689818150AD
:1023600089838B85813019F48981882311F78B85C6
:102370006396CDBFDEBFDF91CF910895CF93DF93FA
:1023800000D0CDB7DEB78A839B83198208C08981CC
:102390008F5F89838A819B8101968A839B838A814F
:1023A0009B81009731F08A819B81FC018081882389
:1023B00071F789812396CDBFDEBFDF91CF9108955C
:1023C000CF93DF93CDB7DEB72897CDBFDEBF8D8328
:1023D0009E836F8378878D819E81009719F480E0BA
:1023E00090E040C08F819885009719F480E090E0DC
:1023F00039C08D819E8189839A8389819A818B835B
:102400009C838B819C8101968B839C8317C08F81D9
:102410009885FC01208189819A81FC012083898132
:102420009A81019689839A838B819C8101968B8303
:102430009C838F81988501968F8398878B819C815F
:10244000009751F08F819885009731F08F819885A2
:10245000FC0180818823D9F689819A81FC01108250
:102460008D819E812896CDBFDEBFDF91CF910895EB
:10247000CF93DF93CDB7DEB72A97CDBFDEBF8E8374
:102480009F83688779874A878E819F81009719F497
:1024900080E090E04EC088859985009719F480E02F
:1024A00090E047C08A85882319F480E090E041C01D
:1024B0008E819F8189839A8389819A818B839C8372
:1024C0008B819C8101968B839C831D821AC0888599
:1024D0009985FC01208189819A81FC012083898171
:1024E0009A81019689839A838B819C8101968B8343
:1024F0009C83888599850196888799878D818F5FD0
:102500008D838B819C81009771F0888599850097D8
:1025100051F088859985FC018081882321F09D8177
:102520008A859817A0F289819A81FC0110828E8198
:102530009F812A96CDBFDEBFDF91CF910895CF93C3
:10254000DF93CDB7DEB72897CDBFDEBF8D839E83E7
:102550006F8378878D819E81009719F480E090E0E9
:1025600057C08F819885009719F480E090E050C0A3
:102570008D819E8189839A8305C089819A81019684
:1025800089839A8389819A81009731F089819A8120
:10259000FC018081882389F789819A81009719F449
:1025A00080E090E035C089819A818B839C838B8108
:1025B0009C8101968B839C8317C08F819885FC0139
:1025C000208189819A81FC01208389819A810196E9
:1025D00089839A838B819C8101968B839C838F81D5
:1025E000988501968F8398878B819C81009751F005
:1025F0008F819885009731F08F819885FC018081CB
:102600008823D9F689819A81FC0110828D819E816F
:102610002896CDBFDEBFDF91CF910895CF93DF9392
:10262000CDB7DEB72A97CDBFDEBF8E839F83688785
:1026300079874A878E819F81009719F480E090E026
:1026400065C088859985009719F480E090E05EC0A8
:102650008A85882319F480E090E058C08E819F819C
:1026600089839A8305C089819A81019689839A8397
:1026700089819A81009731F089819A81FC0180815A
:10268000882389F789819A81009719F480E090E086
:102690003DC089819A818B839C838B819C8101962B
:1026A0008B839C831D821AC088859985FC012081BB
:1026B00089819A81FC01208389819A81019689838D
:1026C0009A838B819C8101968B839C8388859985D5
:1026D0000196888799878D818F5F8D838B819C81FF
:1026E000009771F088859985009751F088859985C4
:1026F000FC018081882321F09D818A859817A0F2B2
:1027000089819A81FC0110828E819F812A96CDBF9A
:10271000DEBFDF91CF910895CF93DF93CDB7DEB7C2
:102720002A97CDBFDEBF8F83988769877A878F818D
:1027300098850097A9F489859A85009719F480E017
:1027400090E0A3C089859A85FC018081882F90E064
:10275000909581959F4F8D839E838D819E8195C09D
:1027600089859A85009759F48F819885FC0180812D
:10277000882F90E08D839E838D819E8186C08F817E
:10278000988589839A8389859A858B839C8389819F
:102790009A81019689839A838B819C8101968B8390
:1027A0009C8314C089819A81019689839A838B8145
:1027B0009C8101968B839C838F81988501968F8362
:1027C000988789859A85019689879A878F819885C8
:1027D000FC01208189859A85FC018081281771F48C
:1027E0008F819885FC018081882341F089819A81BD
:1027F000009721F08B819C810097A1F68F819885AD
:10280000FC01208189859A85FC018081281799F037
:102810008F819885FC018081282F30E089859A85F9
:10282000FC018081882F90E0A901481B590BCA0147
:102830008D839E8328C08F819885FC0180818823A9
:1028400019F41D821E821FC089819A81009799F414
:102850008B819C81009719F41D821E8214C08B818C
:102860009C81FC018081882F90E0909581959F4FFD
:102870008D839E8308C089819A81FC018081882F85
:1028800090E08D839E838D819E812A96CDBFDEBF91
:10289000DF91CF910895CF93DF93CDB7DEB72C971B
:1028A000CDBFDEBF888799876A877B874C878C85F9
:1028B000882319F480E090E0BDC088859985009751
:1028C000A9F48A859B85009719F480E090E0B2C056
:1028D0008A859B85FC018081882F90E09095819569
:1028E0009F4F8D839E838D819E81A4C08A859B8509
:1028F000009759F488859985FC018081882F90E0A4
:102900008D839E838D819E8195C0888599858983DD
:102910009A838A859B858B839C8389819A81019682
:1029200089839A838B819C8101968B839C831F82F0
:1029300017C089819A81019689839A838B819C81B2
:1029400001968B839C8388859985019688879987D2
:102950008A859B8501968A879B878F818F5F8F836E
:1029600088859985FC0120818A859B85FC01808171
:10297000281791F488859985FC018081882361F06E
:1029800089819A81009741F08B819C81009721F089
:102990009F818C85981768F29F818C85981719F410
:1029A00080E090E047C088859985FC0120818A8578
:1029B0009B85FC018081281799F088859985FC0109
:1029C0008081282F30E08A859B85FC018081882FBB
:1029D00090E0A901481B590BCA018D839E8328C032
:1029E00088859985FC018081882319F41D821E82C7
:1029F0001FC089819A81009799F48B819C810097EF
:102A000019F41D821E8214C08B819C81FC0180817F
:102A1000882F90E0909581959F4F8D839E8308C06D
:102A200089819A81FC018081882F90E08D839E832B
:102A30008D819E812C96CDBFDEBFDF91CF91089511
:102A4000CF93DF93CDB7DEB72597CDBFDEBF8B83A6
:102A50009C836D838B819C81009719F480E090E0CA
:102A600031C08B819C8189839A8389819A81019667
:102A700089839A830AC08B819C8101968B839C8376
:102A800089819A81019689839A8389819A810097A5
:102A900069F08B819C81FC018081882339F08B81D6
:102AA0009C81FC0190818D81981729F78B819C81F5
:102AB000FC0190818D81981719F080E090E002C0B0
:102AC0008B819C812596CDBFDEBFDF91CF9108958C
:102AD000CF93DF93CDB7DEB72797CDBFDEBF8C8313
:102AE0009D836E834F838C819D81009719F480E0D4
:102AF00090E03FC08E81882319F480E090E039C0D7
:102B00008C819D8189839A8389819A8101968983A9
:102B10009A831B820DC08C819D8101968C839D833D
:102B200089819A81019689839A838B818F5F8B83B8
:102B300089819A81009789F08C819D81FC01808137
:102B4000882359F08C819D81FC0190818F81981799
:102B500021F09B818E819817F0F28C819D81FC0180
:102B600090818F81981719F080E090E002C08C81ED
:102B70009D812796CDBFDEBFDF91CF910895CF9382
:102B8000DF9300D000D0CDB7DEB78C839D836E83FA
:102B90008C819D81009719F480E090E032C08C8197
:102BA0009D8189839A838C819D810E94BE118B8334
:102BB0008B81882F90E029813A81820F931F89832E
:102BC0009A8305C089819A81019789839A83298193
:102BD0003A818C819D812817390739F089819A8142
:102BE000FC0190818E81981769F789819A81FC0197
:102BF00090818E81981719F080E090E002C0898161
:102C00009A812696CDBFDEBFDF91CF910895CF93F5
:102C1000DF93CDB7DEB72D97CDBFDEBF8A879B8709
:102C20006C877D878A859B85009719F480E090E00A
:102C30005DC08C859D85009719F480E090E056C0BA
:102C40008A859B850E94BE118F838C859D850E94FD
:102C5000BE11888798858F81891718F480E090E0ED
:102C600045C08885882361F48F81882F90E02A856C
:102C70003B85820F931F8D839E838D819E8136C0FD
:102C80009F818885292F281B822F898719821A8284
:102C90001DC08981882F90E02A853B85820F931F74
:102CA0008D839E838D819E812C853D85B9014885CC
:102CB0000E944B148B839C8321E08B819C81009725
:102CC00009F020E02A8389818F5F89838A818823A4
:102CD00021F4998189858917E0F68B819C81009781
:102CE00019F080E090E002C08D819E812D96CDBFCD
:102CF000DEBFDF91CF910895AF92BF92CF92EF9256
:102D00000F93CF93DF93CDB7DEB76C97CDBFDEBF08
:102D10006A8B7B8B8C8B9D8B4E8B2F8B088FE98ED8
:102D2000CA8EAB8EBC8E8B8D9C8D009719F480E083
:102D300090E0E5C08F89823018F08F89853218F0D5
:102D400080E090E0DCC0888D813009F454C081E0DF
:102D50008B878F89882F90E0A0E0B0E08F839887E1
:102D6000A987BA871D8630C08F89882F90E0880F89
:102D7000991F880F991F8C539F4DFC012081318131
:102D8000428153818F819885A985BA8582179307DF
:102D9000A407B507A0F48F89282F30E040E050E069
:102DA0008F819885A985BA85BC01CD010E94F45612
:102DB000DC01CB018F839887A987BA8702C081E0A5
:102DC0008D878B858F5F8B872F81388549855A85C5
:102DD0008A899B89AC89BD8982179307A407B507A7
:102DE00020F08D85882309F4BFCF9E898B858917B4
:102DF00010F48B858E8B8A899B89AC89BD898B83E6
:102E00009C83AD83BE838E89882F90E02B8D3C8D73
:102E1000820F931F89839A838A8D882321F0898169
:102E20009A81FC01108289819A81019789839A8312
:102E30008E89882309F461C081E08C8759C08F890D
:102E4000282F30E040E050E08B819C81AD81BE8135
:102E5000BC01CD010E941357DC01CB018E879F87F7
:102E6000A88BB98B8E859F85A889B9898A309105F1
:102E7000A105B10568F48E85282F205D89819A818E
:102E8000FC01208389819A81019789839A831CC0E0
:102E9000898D813069F08E85282F295C89819A81FE
:102EA000FC01208389819A81019789839A830CC0D0
:102EB0008E85282F295A89819A81FC012083898156
:102EC0009A81019789839A838F89282F30E040E087
:102ED00050E08B819C81AD81BE81BC01CD010E94FF
:102EE00013572B833C834D835E838C858F5F8C8748
:102EF0009C858E89891708F0A2CF8B8D9C8D6C964E
:102F0000CDBFDEBFDF91CF910F91EF90CF90BF90FB
:102F1000AF900895AF92BF92CF92EF920F93CF935D
:102F2000DF93CDB7DEB76397CDBFDEBF69877A8702
:102F30008B879C874D872E870F87E88AC98AAA8A44
:102F4000BB8A8A899B89009719F480E090E052C07F
:102F50008E85823018F08E85853218F080E090E002
:102F600049C089859A85AB85BC858B839C83AD835D
:102F7000BE838A899B8989839A838B819C81AD8159
:102F8000BE81BB23E4F48B819C81AD81BE81B09571
:102F9000A095909581959F4FAF4FBF4F8B839C839A
:102FA000AD83BE838D85882351F089819A812DE27E
:102FB000FC01208389819A81019689839A838B8180
:102FC0009C81AD81BE81E981FA81BC01CD014D8535
:102FD0002E850F85E888C9885F010E947C168F8343
:102FE00098878F819885009719F480E090E002C05F
:102FF0008A899B896396CDBFDEBFDF91CF910F9108
:10300000EF90CF90BF90AF9008950FB7F8940895C8
:103010000FBF08950E941C1B0091FD27039500938C
:10302000FD27A091902CB091912CCD91CDBFDD9139
:10303000DEBF0F910BBF0F910ABF0F9109BF0F9118
:1030400008BF0F910CBFFF91EF91DF91CF91BF911E
:10305000AF919F918F917F916F915F914F913F9130
:103060002F911F910F91FF90EF90DF90CF90BF9025
:10307000AF909F908F907F906F905F904F903F9018
:103080002F901F900F900FBE0F9018950F920FB6B4
:103090000F921F9211242F923F924F925F926F9244
:1030A0007F928F929F92AF92BF92CF92DF92EF92D8
:1030B000FF920F931F932F933F934F935F936F93C1
:1030C0007F938F939F93AF93BF93CF93DF93EF93B0
:1030D000FF930CB70F9308B70F9309B70F930AB775
:1030E0000F930BB70F93ADB7BEB7C091082ED09119
:1030F000092EA993B9930E941C1B009104280093E8
:10310000DE2AA091902CB091912CA093082EB09320
:10311000092ECD91CDBFDD91DEBF0F910BBF0F9179
:103120000ABF0F9109BF0F9108BF0F910CBFFF910C
:10313000EF91DF91CF91BF91AF919F918F917F914F
:103140006F915F914F913F912F911F910F91FF9040
:10315000EF90DF90CF90BF90AF909F908F907F9037
:103160006F905F904F903F902F901F900F900FBEE9
:103170000F9008950E941C1B009104280093DE2AE2
:10318000A091902CB091912CA093082EB093092E71
:10319000CD91CDBFDD91DEBF0F910BBF0F910ABF67
:1031A0000F9109BF0F9108BF0F910CBFFF91EF91D5
:1031B000DF91CF91BF91AF919F918F917F916F914F
:1031C0005F914F913F912F911F910F91FF90EF9041
:1031D000DF90CF90BF90AF909F908F907F906F9037
:1031E0005F904F903F902F901F900F900FBE0F90C9
:1031F0001895CF93DF93CDB7DEB71092D2271092F8
:10320000D327DF91CF910895CF93DF93CDB7DEB76A
:10321000DF91CF910895CF93DF930F920F92CDB7A7
:10322000DEB789839A8389819A810E949C050F90D9
:103230000F90DF91CF910895CF93DF930F920F926C
:10324000CDB7DEB789839A8389819A810E94A905C7
:103250000F900F90DF91CF910895CF93DF93CDB76B
:10326000DEB70E94B605DF91CF910895CF93DF932B
:10327000CDB7DEB70E94BD05DF91CF910895CF9302
:10328000DF93CDB7DEB72C97CDBFDEBF8D839E8396
:103290006F83788749875A872B873C878D819E81EA
:1032A000AA2797FDA095BA2F89839A83AB83BC8305
:1032B000298189859A85FC01208389859A850197D2
:1032C00089879A8789819A81AB81BC81892F9A2FBE
:1032D000AB2FBB2789839A83AB83BC8329818985E4
:1032E0009A85FC01208389859A85019789879A8729
:1032F00089819A81AB81BC81892F9A2FAB2FBB2703
:1033000089839A83AB83BC83298189859A85FC0153
:10331000208389859A85019789879A8789859A85E7
:10332000FC01108289859A85019789879A8789850A
:103330009A8520E8FC01208389859A8501978987F1
:103340009A8789859A85FC01108289859A850197DB
:1033500089879A8789859A8522E0FC01208389855F
:103360009A85019789879A8789859A8523E0FC0148
:10337000208389859A85019789879A8789859A8587
:1033800024E0FC01208389859A85019789879A87A3
:1033900089859A8525E0FC01208389859A85019796
:1033A00089879A8789859A8526E0FC01208389850B
:1033B0009A85019789879A8789859A8527E0FC01F4
:1033C000208389859A85019789879A8789859A8537
:1033D00028E0FC01208389859A85019789879A874F
:1033E00089859A8529E0FC01208389859A85019742
:1033F00089879A8789859A8520E1FC0120838985C0
:103400009A85019789879A8789859A8521E1FC01A8
:10341000208389859A85019789879A8789859A85E6
:1034200022E1FC01208389859A85019789879A8703
:1034300089859A8523E1FC01208389859A850197F6
:1034400089879A8789859A8524E1FC01208389856B
:103450009A85019789879A8789859A8525E1FC0154
:10346000208389859A85019789879A8789859A8596
:1034700026E1FC01208389859A85019789879A87AF
:1034800089859A8527E1FC01208389859A850197A2
:1034900089879A8789859A8528E1FC012083898517
:1034A0009A85019789879A8789859A8529E1FC0100
:1034B000208389859A85019789879A8789859A8546
:1034C00020E2FC01208389859A85019789879A8764
:1034D00089859A8521E2FC01208389859A85019757
:1034E00089879A8789859A8522E2FC0120838985CC
:1034F0009A85019789879A8789859A8523E2FC01B5
:10350000208389859A85019789879A878F819885F5
:10351000CC01A0E0B0E089839A83AB83BC8329818E
:1035200089859A85FC01208389859A8501978987F9
:103530009A8789819A81AB81BC81892F9A2FAB2F81
:10354000BB27282F89859A85FC01208389859A8548
:10355000019789879A8789859A8526E2FC012083CD
:1035600089859A85019789879A8789859A8527E22F
:10357000FC01208389859A85019789879A878985A7
:103580009A8528E2FC01208389859A85019789879D
:103590009A8789859A8529E2FC01208389859A8505
:1035A000019789879A8789859A8520E3FC01208382
:1035B00089859A85019789879A8789859A8521E3E4
:1035C000FC01208389859A85019789879A87898557
:1035D0009A85FC01108289859A85019789879A8747
:1035E00089859A85FC01108289859A85019789874A
:1035F0009A8789859A85FC01108289859A85019729
:1036000089879A8789859A85FC01108289859A85A0
:10361000019789879A8789859A85FC011082898517
:103620009A85019789879A8789859A852C96CDBF37
:10363000DEBFDF91CF910895CF93DF93CDB7DEB793
:103640000E94C405DF91CF910895CF93DF930F922D
:103650000F92CDB7DEB789839A8389819A810E94C0
:10366000CB050F900F90DF91CF910895CF93DF930B
:10367000CDB7DEB70E94D8058091D2279091D3278D
:1036800001968093D2279093D3278091D22790914F
:10369000D3278436910530F01092D2271092D32789
:1036A0000E943B53DF91CF910895CF93DF930F9208
:1036B0000F92CDB7DEB788E591E289839A838AE5D8
:1036C00091E289839A838EE591E289839A8380E6E9
:1036D00091E289839A8382E691E289839A8384E6E0
:1036E00091E289839A8386E691E289839A8388E6C8
:1036F00091E289839A838AE691E289839A838CE6B0
:1037000091E289839A838EE691E289839A8380E7A6
:1037100091E289839A8382E791E289839A8384E79D
:1037200091E289839A8386E791E289839A8388E785
:1037300091E289839A838AE791E289839A838CE76D
:1037400091E289839A838EE791E289839A8380E864
:1037500091E289839A8382E891E289839A8384E85B
:1037600091E289839A8386E891E289839A8388E843
:1037700091E289839A838AE891E289839A838CE82B
:1037800091E289839A838EE891E289839A8380E922
:1037900091E289839A8382E991E289839A8384E919
:1037A00091E289839A8386E991E289839A8388E901
:1037B00091E289839A838AE991E289839A838CE9E9
:1037C00091E289839A838EE991E289839A8380EAE0
:1037D00091E289839A8382EA91E289839A8384EAD7
:1037E00091E289839A8386EA91E289839A8388EABF
:1037F00091E289839A838AEA91E289839A838CEAA7
:1038000091E289839A838EEA91E289839A838EE694
:1038100098E289839A838AED97E289839A8384EB7D
:1038200091E289839A8386EB91E289839A830F9050
:103830000F90DF91CF910895CF93DF93CDB7DEB78F
:103840002897CDBFDEBF8B839C836D837E834F83A0
:10385000588719828091072E882339F08F819885A7
:1038600021E1FC01208380E028C08B819C81FC0148
:103870008081882F90E0019784309105C0F400008A
:103880000E94051889838B819C819C01225F3F4F98
:103890008D819E81B9010E94C8268A8389810E94F8
:1038A00008188F819885FC0110828A8106C08F815B
:1038B000988521E0FC01208380E02896CDBFDEBF03
:1038C000DF91CF910895CF93DF93CDB7DEB72897DF
:1038D000CDBFDEBF8B839C836D837E834F835887F0
:1038E00019828091072E882331F08F81988522E1FB
:1038F000FC01208335C08B819C81FC018081882F55
:1039000090E001978430910568F400000E9405184A
:1039100089838D819E810E94FB268A838A818031E2
:1039200080F006C08F81988521E0FC01208318C0BB
:1039300089810E9408188F8198852BE0FC012083E3
:103940000FC08B819C810E962D813E81B9010E9412
:10395000C82689810E9408188F819885FC011082F1
:103960002896CDBFDEBFDF91CF9108950F931F93AF
:10397000CF93DF93CDB7DEB76597CDBFDEBF8C8722
:103980009D876E877F87488B598B2A8B3B8B0C8B4F
:103990001D8B19868E859F85FC01108211828C8576
:1039A0009D8589839A8389819A81FC018081918197
:1039B0008B839C8328C08B819C81FC018081882F14
:1039C00090E08230910571F08330910569F081308B
:1039D000910561F08C899D8921E0FC01208380E0C4
:1039E00090E05FC2000003C0000001C000008981B8
:1039F0009A81029689839A8389819A81FC018081C8
:103A000091818B839C838B819C810097A1F680910F
:103A1000072E882341F08C899D8922E0FC012083B8
:103A200080E090E03EC28091FA27882341F08C89A3
:103A30009D892DE0FC01208380E090E032C20E944D
:103A4000051889871D821E821F8218868C859D8598
:103A500089839A8389819A81FC01808191818B83FA
:103A60009C83FCC08B819C81FC018081882F90E02D
:103A70008230910509F470C08330910521F08130C6
:103A80009105B9F1CFC08B819C81FC018381948128
:103A9000009759F18B819C81FC01838194819C0169
:103AA000215030408B819C81FC01238334838E859F
:103AB0009F852B813C81FC01208331838E859F85EE
:103AC00002968E879F8781E08D8388899989FC0182
:103AD00010821182888999890296888B998B8E81B0
:103AE0009F8101968E839F83ADC088858160888782
:103AF000A9C08B819C81FC0181819281009741F159
:103B00008B819C81FC012181328188899989FC010A
:103B100020833183888999890296888B998B8B8140
:103B20009C81FC01118212828E859F852B813C81B4
:103B3000FC01208331838E859F8502968E879F8727
:103B400081E08D838E819F8101968E839F837AC0D1
:103B500088858260888776C08B819C81FC01818109
:103B600092818A879B878A859B85FC0184859585C0
:103B7000009709F453C08A859B85FC018085918557
:103B8000FC014081518128893989F90140835183A1
:103B9000288939892E5F3F4F288B398B9C012E5FF6
:103BA0003F4F8A859B85FC01208731878A859B85CD
:103BB000FC01208531858A859B85FC018481958166
:103BC0002817390751F48A859B85FC0122813381AE
:103BD0008A859B85FC01208731878A859B85FC012E
:103BE000848595859C01215030408A859B85FC0108
:103BF000248735878E859F852B813C81FC0120831E
:103C000031838E859F8502968E879F8781E08D8385
:103C10008E819F8101968E839F8314C088858460E6
:103C2000888710C089850E9408188E859F85FC01B1
:103C3000108211828C899D8921E0FC0120838E8174
:103C40009F812FC189819A81029689839A83898174
:103C50009A81FC01808191818B839C838B819C81E3
:103C6000009709F0FFCE8D81813079F48E859F8594
:103C7000FC011082118289850E9408188C899D8917
:103C8000FC0110828E819F810CC18091082E909141
:103C9000092E2091082E3091092EF901368D2885A4
:103CA000232B2068FC01268F8091082E9091092EED
:103CB000FC01178E8091082E9091092E2A893B894C
:103CC000FC01248F358F8C859D850E94AE228985CD
:103CD0000E9408180E944B260E940518898780912F
:103CE000082E9091092EFC01878D882F90E0009777
:103CF00019F082309105A9F58091082E9091092E36
:103D0000FC01828993898B839C838B819C810097A2
:103D1000B9F08E859F852B813C81FC012083318306
:103D20008E859F8502968E879F878E859F85FC0155
:103D3000108211828E819F8101968E839F831BC08A
:103D40008091082E9091092E21E0FC01278F80910F
:103D5000082E9091092E2C853D85B9010E94A22341
:103D60000AC08091082E9091092E2C853D85B901BD
:103D70000E94A22300008091082E9091092EFC0140
:103D8000878D882F90E0009729F08230910509F403
:103D900042C051C08B819C81FC018081882F90E0C2
:103DA000813091051CF18330910574F083309105C9
:103DB000E9F488899989FC0110821182888999899E
:103DC0000296888B998B22C08091082E9091092EA3
:103DD000FC012689378988899989FC0120833183F0
:103DE000888999890296888B998B10C089850E9451
:103DF00008188E859F85FC01108211828C899D890F
:103E000021E0FC0120838E819F814BC08C899D899C
:103E1000FC01108220C088899989FC0110821182DE
:103E2000888999890296888B998B8C899D892EE047
:103E3000FC01208310C088899989FC0110821182BD
:103E4000888999890296888B998B8C899D892AE02B
:103E5000FC01208300008091082E9091092EFC0126
:103E6000168E8091082E9091092EFC01178E80915C
:103E7000082E9091092EFC01128A138A8091082E37
:103E80009091092EFC01148A158A8091082E909138
:103E9000092EFC01168A178A89850E9408188E81CE
:103EA0009F816596CDBFDEBFDF91CF911F910F91AE
:103EB0000895CF93DF93CDB7DEB70E94F9180E9423
:103EC00098240E94D1240E949D250E943B240E9498
:103ED000CE300E9423420E94FF240E944E250E9461
:103EE000E9530E9404190E94551BDF91CF91089558
:103EF000CF93DF93CDB7DEB78091FD27813049F4B2
:103F00008091072E8F3F29F08091072E8F5F80933D
:103F1000072EDF91CF910895CF93DF930F92CDB706
:103F2000DEB719828091FD27813009F055C00E94CB
:103F3000051889838091072E882329F08091072E08
:103F400081508093072E8091072E882309F041C06D
:103F50008091FA278823E9F50E94A12690910428F0
:103F60008091DE2A9817A9F180910428882F90E08B
:103F7000880F991F8D589A4CFC0180819181809304
:103F8000902C9093912C2091902C3091912CF901B0
:103F900086A197A1A0A5B1A50196A11DB11DF9010A
:103FA00086A397A3A0A7B1A780914A2C90914B2CF0
:103FB000A0914C2CB0914D2C0196A11DB11D809368
:103FC0004A2C90934B2CA0934C2CB0934D2C0E94D8
:103FD000BA1889810E9408180F90DF91CF91089537
:103FE000CF93DF930F92CDB7DEB719828091FD2773
:103FF000813099F40E94051889838091072E8823C7
:1040000049F48091FA278F3F29F08091FA278F5F3A
:104010008093FA2789810E9408180F90DF91CF9131
:104020000895CF93DF930F92CDB7DEB719828091B9
:10403000FD27813029F50E94051889838091FA2790
:104040008823D9F08091FA2781508093FA278091B4
:10405000FA27882371F48091072E882331F489810F
:104060000E9408180E944B260BC089810E940818E4
:1040700007C089810E94081803C089810E9408181E
:104080000F90DF91CF910895CF93DF93CDB7DEB737
:104090008091FD278823F9F40E94A12680910428AD
:1040A0008093DE2A80910428882F90E0880F991F42
:1040B0008D589A4CFC01808191818093902C909333
:1040C000912C8091902C9091912C8093082E90931C
:1040D000092E0E940A18DF91CF910895CF93DF93A4
:1040E0000F92CDB7DEB7198282E090E00E949B4D1F
:1040F0000E94051889831092FE271092FF271092C4
:1041000000281092012889810E94081884E690E016
:104110000E949B4D0E94051889838091FE279091F3
:10412000FF27A0910028B09101288093502C9093F4
:10413000512CA093522CB093532C81E08093723574
:1041400089810E9408180F90DF91CF910895CF9335
:10415000DF9300D00F92CDB7DEB71C820E94361BD2
:104160000E9405188C8380910E2E90910F2EA091A5
:10417000102EB091112E0196A11DB11D80930E2E0F
:1041800090930F2EA093102EB093112E8C810E942D
:1041900008188091FD27813009F0A4C08091E12AA0
:1041A000882F90E08130910541F08230910539F0FF
:1041B000009759F481E08B830DC01B820BC081E016
:1041C0008B8381E08093E12A05C081E08B8310928C
:1041D000E12A00008B81882309F483C08091DF2AC3
:1041E0009091E02A89839A8374C00E9405188C8379
:1041F00089819A81FC01848D958D009709F45FC0B7
:1042000089819A81FC01848D958D9C0121503040DB
:1042100089819A81FC01248F358F89819A81FC01E3
:10422000848D958D009709F04AC089819A81FC019F
:10423000868D882F90E087739070009781F0898138
:104240009A81FC01868D282F287C89819A81FC0126
:10425000268F89819A8121E0FC01278F04C0898102
:104260009A81FC01178E89819A81FC01868D882FA5
:1042700090E088709070009711F589819A81FC0117
:1042800094A18091942C892B8093942C89819A817C
:10429000FC0182A1882F90E029813A81F90122A1B5
:1042A000222F30E02B56334DF901408129813A818C
:1042B000F90123A1242B8B56934DFC012083898186
:1042C0009A81FC018685978589839A838C810E94D7
:1042D000081889819A81FC0180A18F3309F085CF6C
:1042E00001C000002496CDBFDEBFDF91CF910895BD
:1042F000CF93DF93CDB7DEB78EE191E0DF91CF9121
:104300000895CF93DF93CDB7DEB7DF91CF910895B6
:10431000CF93DF93CDB7DEB72B97CDBFDEBF8E83B4
:104320009F83688779874A872B878E819F81FC01CD
:104330008581882F90E088549E4DFC01808189837F
:104340008981882F90E02E813F81820F931F0696EE
:10435000FC018081882F90E088549E4DFC01808173
:104360008A838981982F990F990F990F8A81890FD4
:104370008B838B81882F90E0880F991F8D589A4CE2
:10438000FC01808191818C839D838C819D81FC01C6
:10439000148E158E8C819D8128853985FC01268B94
:1043A000378B8C819D81FC01868D982F8A85809525
:1043B0008923282F8C819D81FC01268F8C819D81F2
:1043C0002B85FC01278F8C819D81FC01868D882F98
:1043D00090E0887090700097E1F48C819D81FC01E1
:1043E00094A18091942C892B8093942C8981882F7F
:1043F00090E02981222F30E02B56334DF901408186
:104400002C813D81F90123A1242B8B56934DFC0176
:1044100020838C819D812E813F81B9010E9453238D
:104420008C819D81FC0184899589009789F08C811C
:104430009D81FC01248935898C819D81B9010E946F
:10444000A2238C819D812E813F81FC01228B338BA5
:104450008B812B96CDBFDEBFDF91CF910895CF9397
:10446000DF9300D0CDB7DEB78A839B838091082E7F
:104470009091092E2A813B81FC01228B338B809104
:10448000082E9091092EFC0182A1882F90E02091A6
:10449000082E3091092EF90122A1222F30E04A8105
:1044A0005B81240F351F2A5F3F4FF9014081209126
:1044B000082E3091092EF90123A1422B2A813B813C
:1044C000820F931F0696FC0140838A819B81FC0129
:1044D00025818091082E9091092EFC0184A1282B22
:1044E0008A819B81FC0125838091082E9091092E61
:1044F000FC0182A189838981882F90E02981222F64
:1045000030E02B56334DF9012081422F2091082EA7
:104510003091092EF90123A1209524238B56934D28
:10452000FC0120838981882F90E08B56934DFC01FC
:104530008081882369F48091082E9091092EFC01D6
:1045400084A1982F90958091942C89238093942C0A
:104550002396CDBFDEBFDF91CF910895CF93DF9338
:10456000CDB7DEB72797CDBFDEBF8E839F83809107
:10457000082E9091092EFC01128A138A8091082E30
:104580009091092E2E813F81FC01248B358B8E81E9
:104590009F8189839A8389819A81FC01808191819D
:1045A0008B839C8341C08091082E9091092EFC0141
:1045B00082A1882F90E02091082E3091092EF901D8
:1045C00022A1222F30E04B815C81240F351F2A5F0E
:1045D0003F4FF90140812091082E3091092EF901B9
:1045E00023A1422B2B813C81820F931F0696FC0155
:1045F00040838B819C81FC0125818091082E9091C4
:10460000092EFC0184A1282B8B819C81FC01258330
:1046100089819A81029689839A8389819A81FC0192
:10462000808191818B839C838B819C81009709F091
:10463000BACF8091082E9091092EFC0182A18D8322
:104640008D81882F90E02D81222F30E02B56334D25
:10465000F9012081422F2091082E3091092EF90175
:1046600023A1209524238B56934DFC0120838D811B
:10467000882F90E08B56934DFC018081882369F44C
:104680008091082E9091092EFC0184A1982F90957D
:104690008091942C89238093942C2796CDBFDEBFE4
:1046A000DF91CF910895CF93DF93CDB7DEB72597F4
:1046B000CDBFDEBF8A839B836C837D838A819B8190
:1046C000FC0182A189838981882F90E02981222F92
:1046D00030E04C815D81240F351F2A5F3F4FF90187
:1046E0002081422F2A813B81F90123A12095242397
:1046F000422F2C813D81820F931F0696FC0140833F
:104700008981882F90E02C813D81820F931F06962E
:10471000FC018081882381F48C819D81FC0185814D
:10472000282F8A819B81FC0184A180958223282FD8
:104730008C819D81FC0125832596CDBFDEBFDF9155
:10474000CF910895CF93DF93CDB7DEB72B97CDBF31
:10475000DEBF888799876A877B8788859985FC0172
:1047600082A18D8388859985FC0184A18E838885AB
:104770009985FC0183A18F838A859B8589839A8390
:1047800089819A81FC01808191818B839C833FC0C8
:104790008D81882F90E02D81222F30E04B815C812C
:1047A000240F351F2A5F3F4FF9012081322F2F81BF
:1047B00020952323422F2B813C81820F931F069645
:1047C000FC0140838D81882F90E02B813C81820FFA
:1047D000931F0696FC018081882369F48B819C815C
:1047E000FC018581982F8E8180958923282F8B81CC
:1047F0009C81FC01258389819A81029689839A8311
:1048000089819A81FC01808191818B839C838B813A
:104810009C81009709F0BCCF2B96CDBFDEBFDF9106
:10482000CF910895CF93DF93CDB7DEB72597CDBF56
:10483000DEBF8C839D838C819D81FC0115828C81E0
:104840009D81069689839A831B820CC089819A81F7
:10485000FC01108289819A81019689839A838B81D8
:104860008F5F8B838B81883088F32596CDBFDEBF29
:10487000DF91CF910895CF93DF9300D000D0CDB7D3
:10488000DEB78CE79FE26CE271E00E94FA258CE7CC
:104890009FE28B839C838AE99FE28D839E831982AA
:1048A0001A8223C08B819C81FC0110828B819C81A8
:1048B0002D813E81FC01218332838B819C812FE3FA
:1048C000FC0126878B819C81FC0117868B819C8152
:1048D0004E968B839C838D819E814E968D839E8385
:1048E00089819A81019689839A8389819A81893005
:1048F0009105C0F28B819C81FC0110828B819C818F
:10490000FC01118212828B819C812FE3FC0126879E
:104910008B819C81FC0117868CE79FE28093052E9A
:104920009093062E2696CDBFDEBFDF91CF910895DE
:10493000CF93DF93CDB7DEB710920E2E10920F2ECD
:104940001092102E1092112E1092072E1092FA270C
:104950001092572C1092FD2710924A2C10924B2C3B
:1049600010924C2C10924D2C1092FE271092FF2783
:1049700010920028109201281092F3351092F4350D
:104980001092F5351092F6351092502C1092512C51
:104990001092522C1092532C10927235DF91CF91BD
:1049A0000895CF93DF9300D0CDB7DEB71092942C4B
:1049B00085E99CE28A839B8319820CC08A819B8152
:1049C000FC0110828A819B8101968A839B83898165
:1049D0008F5F89838981883088F31092DE2A109254
:1049E00004281092902C1092912C1092082E109264
:1049F000092E2396CDBFDEBFDF91CF9108958F9210
:104A00009F92AF92BF92CF92DF92EF92FF920F935D
:104A10001F93CF93DF930F92CDB7DEB70F920F9214
:104A20004DB75EB74F5F5F4F89E197E22BE73FE2FB
:104A3000E4E1FEE263E070E0DA016D937C9360E014
:104A400070E0A9012FE30FEF1FEF7F010F2EF8E6B3
:104A5000AF2EF1E0BF2EF0E0CF2EF0E0DF2EF02DF4
:104A6000882499240E943E480F900F9028EB32E250
:104A70008FE3B9019E012F5F3F4FA9010E94D54AE4
:104A80000F90DF91CF911F910F91FF90EF90DF90EA
:104A9000CF90BF90AF909F908F9008958F929F92EC
:104AA000AF92BF92CF92DF92EF92FF920F931F933C
:104AB000CF93DF930F92CDB7DEB70F920F924DB722
:104AC0005EB74F5F5F4F8DE397E229E43CE2E2EE91
:104AD000FAE263E070E0DA016D937C9360E070E0ED
:104AE000A9012EE30EEF1FEF7F010F2EF8E6AF2E88
:104AF000F1E0BF2EF0E0CF2EF0E0DF2EF02D882485
:104B000099240E943E480F900F9026EC32E28EE3EB
:104B1000B9019E012F5F3F4FA9010E94D54A0F9016
:104B2000DF91CF911F910F91FF90EF90DF90CF9089
:104B3000BF90AF909F908F900895CF93DF93CDB7A4
:104B4000DEB72597CDBFDEBF88EA90E368EC74E05E
:104B50000E94FA2583E795E360E870E00E94FA2559
:104B600088EA90E38A839B8380EF90E38C839D8324
:104B700019821FC08A819B812C813D81FC0126877F
:104B800037878A819B812FE3FC0120AF8A819B813B
:104B9000FC0111AE8A819B81885B9F4F8A839B8336
:104BA0008C819D81885B9F4F8C839D8389818F5FE2
:104BB000898389818031F0F28A819B81FC0116868C
:104BC00017868A819B812FE3FC0120AF8A819B811C
:104BD000FC0111AE1092DF2A1092E02A88EA90E3DD
:104BE0008093542C9093552C2596CDBFDEBFDF913A
:104BF000CF910895CF93DF9300D00F92CDB7DEB75A
:104C000089839A836B837C830EC089819A81FC019E
:104C1000108289819A81019689839A838B819C81F4
:104C200001978B839C838B819C81009771F72496DD
:104C3000CDBFDEBFDF91CF910895CF93DF9300D03A
:104C400000D0CDB7DEB789839A836B837C834D8395
:104C50005E8317C08B819C81FC01208189819A81B0
:104C6000FC01208389819A81019689839A838B81B3
:104C70009C8101968B839C838D819E8101978D837E
:104C80009E838D819E81009729F72696CDBFDEBF3A
:104C9000DF91CF910895CF93DF930F92CDB7DEB719
:104CA00019820E94051889838091072E882309F0B4
:104CB00041C08091FA278823E9F50E94A1269091AE
:104CC00004288091DE2A9817A9F180910428882F62
:104CD00090E0880F991F8D589A4CFC01808191813A
:104CE0008093902C9093912C2091902C3091912C2A
:104CF000F90186A197A1A0A5B1A50196A11DB11D9D
:104D0000F90186A397A3A0A7B1A780914A2C9091FF
:104D10004B2CA0914C2CB0914D2C0196A11DB11D96
:104D200080934A2C90934B2CA0934C2CB0934D2CF9
:104D30000E94461889810E9408180F90DF91CF9138
:104D40000895CF93DF930F92CDB7DEB78091942C67
:104D5000882F90E088549E4DFC0180818983898151
:104D6000282F220F220F220F8981882F90E08B5647
:104D7000934DFC018081882F90E088549E4DFC016A
:104D80008081820F809304280F90DF91CF91089546
:104D9000CF93DF93CDB7DEB72597CDBFDEBF8A8334
:104DA0009B836C837D83198215C08C819D81FC015E
:104DB00020818A819B81FC0120838A819B810196CD
:104DC0008A839B838C819D8101968C839D838981BD
:104DD0008F5F89838C819D81FC018081882329F7E5
:104DE0008A819B81FC01108289812596CDBFDEBF1F
:104DF000DF91CF910895CF93DF9300D0CDB7DEB789
:104E00008A839B83198208C08A819B8101968A8349
:104E10009B8389818F5F89838A819B81FC0180814B
:104E2000882391F789812396CDBFDEBFDF91CF9193
:104E30000895CF93DF9300D0CDB7DEB78A839B83ED
:104E400019820E94051889838091FE279091FF277F
:104E5000A0910028B09101280196A11DB11D809359
:104E6000FE279093FF27A0930028B0930128898103
:104E70000E9408180E942D19E4CFCF93DF9300D031
:104E8000CDB7DEB78A839B83198204C088EC90E09B
:104E90000E949B4D809172358823C1F38091502CE4
:104EA0009091512CA091522CB091532C24E630E0DB
:104EB00040E050E0BC01CD010E941357DA01C90166
:104EC0008093502C9093512CA093522CB093532C40
:104ED0008091502C9091512CA091522CB091532C38
:104EE0000097A105B10529F41092562C8FEF0E946E
:104EF000894C0E94051889838091FE279091FF2795
:104F0000A0910028B09101288093F3359093F43557
:104F1000A093F535B093F6351092FE271092FF2737
:104F2000109200281092012889810E94081880910F
:104F3000F3359091F435A091F535B091F635209187
:104F4000502C3091512C4091522C5091532CBC013B
:104F5000CD010E941357DA01C90194E6292F281BBD
:104F6000822F8093562C0E9436190E94BC2784E61B
:104F700090E00E949B4DBDCFCF93DF93CDB7DEB7BE
:104F80002C97CDBFDEBF198241C09E012B5F3F4FE2
:104F90008981B9010E94D14B8A838A81882399F53E
:104FA0008981882F90E0880F991F8D589A4CFC01B9
:104FB000808191818B839C838B819C81009719F1E7
:104FC0008B819C8181309105F1F08B819C81FC016A
:104FD000248135818B819C81FC0186819781A0850C
:104FE000B185280F391F8B819C81FC0122AB33AB2B
:104FF00089859A85AB85BC852B813C81F90184AB81
:1050000095ABA6ABB7AB89818F5F898389818034EB
:1050100008F4BBCF2C96CDBFDEBFDF91CF910895B2
:10502000AF92BF92CF92DF92EF92FF920F931F93B6
:10503000CF93DF93CDB7DEB76297CDBFDEBF8C8352
:105040006D837E834F83588729873A87EB86FC865A
:105050000D871E87CF86D88AA98ABA8A19820E94AC
:10506000051889838091542C9091552C8A839B83B9
:105070008A819B81009709F428C18A819B81FC0168
:10508000868597858093542C9093552C89810E9416
:1050900008188A819B812D813E81FC012083318308
:1050A0008A819B812C81FC0120A38A819B81FC0148
:1050B000168E8A819B81FC01178E8A819B81FC015F
:1050C000148E158E8A819B812F853889FC0122835D
:1050D00033832A813B818B859C85AD85BE85F90113
:1050E00086839783A087B1878A819B812F813885AA
:1050F000FC01248335838A819B8129893A89FC01BB
:10510000228733878A819B8129853A85FC01248700
:1051100035878A819B81FC0115A28C81282F2695D9
:10512000269526958A819B81FC0122A38C81282FBC
:1051300027708A819B81FC0121A38A819B81FC01CC
:1051400082A1282F30E081E090E002C0880F991FF3
:105150002A95E2F7282F8A819B81FC0124A38A816A
:105160009B81FC0181A1282F30E081E090E002C00A
:10517000880F991F2A95E2F7282F8A819B81FC01CD
:1051800023A38A819B81FC01128A138A8A819B81D5
:10519000FC01148A158A8A819B81FC01108E118E74
:1051A0008A819B81FC01168A178A8A819B81FC0176
:1051B00016A217A210A611A68A819B81FC0116A631
:1051C00017A610AA11AA8A819B81FC0112A613A618
:1051D00014A615A68A819B81FC0112AA13AA8A81B2
:1051E0009B81FC0114AA15AA16AA17AA8A819B8181
:1051F0002FE3FC0120AF8A819B81FC0111AE8A81E3
:105200009B810E94251B8A819B810E940B190E9411
:10521000051889838C81882F90E0880F991F8D58FD
:105220009A4C2A813B81FC01208331832091DF2A23
:105230003091E02A8A819B81FC01268737878A8109
:105240009B81FC01108A118A8091DF2A9091E02ACB
:10525000009749F08091DF2A9091E02A2A813B81D2
:10526000FC01208B318B8A819B818093DF2A909374
:10527000E02A8A819B81FC0194A18091942C892B46
:105280008093942C8A819B81FC0182A1882F90E0DD
:105290002A813B81F90122A1222F30E02B56334D88
:1052A000F90140812A813B81F90123A1242B8B56EE
:1052B000934DFC0120838091572C8F5F8093572C56
:1052C00089810E94081880E004C089810E94081822
:1052D00082E46296CDBFDEBFDF91CF911F910F9127
:1052E000FF90EF90DF90CF90BF90AF900895CF9355
:1052F000DF93CDB7DEB72C97CDBFDEBF8E839F8304
:10530000688779874A872B873C871C828E819F819B
:10531000FC018081853041F08B859C8521E0FC017A
:10532000208380E090E0EEC08A8580788D838D8137
:10533000882331F08A858F778A8781E08B8301C04B
:105340001B828B859C85FC0110820E9405188C8332
:105350008A85882F90E08130910509F499C08230C8
:10536000910524F4009709F463C0BFC08230910511
:1053700021F08330910581F1B8C08E819F81FC01BD
:1053800023813481888599858223932389839A8315
:1053900029813A818885998528173907A1F48B815D
:1053A0008130B1F48E819F81FC0123813481898118
:1053B0009A8180959095282339238E819F81FC01C5
:1053C0002383348305C08B859C8520E7FC012083E3
:1053D0008C810E94081894C08E819F81FC012381DA
:1053E0003481888599858223932389839A8389814F
:1053F0009A810097A1F08B818130B1F48E819F81D9
:10540000FC012381348189819A818095909528239C
:1054100039238E819F81FC012383348305C08B85D2
:105420009C8520E7FC0120838C810E94081868C0BD
:105430008E819F81FC01838194819C012095309510
:10544000888599858223932389839A8329813A8148
:10545000888599852817390791F48B818130A1F4CB
:105460008E819F81FC012381348189819A81282B3F
:10547000392B8E819F81FC012383348305C08B856A
:105480009C8520E7FC0120838C810E94081838C08D
:105490008E819F81FC01838194819C0120953095B0
:1054A000888599858223932389839A8389819A8128
:1054B000009791F08B818130A1F48E819F81FC0156
:1054C0002381348189819A81282B392B8E819F8178
:1054D000FC012383348305C08B859C8520E7FC0178
:1054E00020838C810E9408180BC08C810E940818B0
:1054F00019821A828B859C852FE6FC01208300008F
:1055000089819A812C96CDBFDEBFDF91CF9108951E
:10551000CF93DF93CDB7DEB72797CDBFDEBF8C83A8
:105520009D836E837F8319828091072E882341F0AB
:105530008E819F8120E1FC01208380E090E044C0C7
:105540000E940518898380917035909171358A8306
:105550009B838A819B81009769F18091703590913E
:105560007135FC0181819281809370359093713502
:105570008A819B8125E0FC0120838A819B812C818B
:105580003D81FC01238334838A819B81FC0111824C
:1055900012828A819B812FE3FC0125838A819B8172
:1055A000FC01168289810E9408188E819F81FC016E
:1055B000108208C089810E9408188E819F8122E78D
:1055C000FC0120838A819B812796CDBFDEBFDF91BE
:1055D000CF910895CF93DF93CDB7DEB72B97CDBF93
:1055E000DEBF8F83988769874A875B871E82809199
:1055F000072E882341F08A859B852FE0FC012083BC
:105600008F819885B8C08F819885FC018081853015
:1056100041F08A859B8521E0FC0120838F8198855C
:10562000AAC00E9405188E838F819885FC01818114
:105630009281009719F081E0898301C019828985E0
:10564000882F90E0009721F081309105E1F184C02E
:105650008981882359F58F8198852FE3FC01258363
:105660008F819885FC0116828F819885FC011082BC
:1056700020917035309171358F819885FC0121839F
:1056800032838F819885FC01138214828F819885E3
:1056900080937035909371358E810E9408188A85A9
:1056A0009B85FC0110821C821D8263C08E810E943A
:1056B00008188A859B8529E4FC0120838F819885C1
:1056C0008C839D8356C08F819885FC018181928156
:1056D0008A839B830DC08A819B8160E070E00E9479
:1056E0002B318A819B81FC01808191818A839B83FC
:1056F0008A819B81009779F78F8198852FE3FC0140
:1057000025838F819885FC0116828F819885FC0105
:10571000108220917035309171358F819885FC0110
:10572000218332838F819885FC01138214828F81BB
:10573000988580937035909371358E810E940818FA
:105740008981813011F40E944B268A859B85FC015A
:1057500010821C821D820DC08E810E9408188A85CD
:105760009B8527E0FC0120838F8198858C839D8316
:1057700000008C819D812B96CDBFDEBFDF91CF9144
:105780000895CF93DF93CDB7DEB72897CDBFDEBFA7
:105790008B839C836D837E834F835887198280918E
:1057A000072E882339F08F81988521E1FC01208321
:1057B00080E026C00E94051889838B819C81FC01B2
:1057C0008081853051F089810E9408188F819885E9
:1057D00021E0FC01208380E013C08B819C819C012F
:1057E0002B5F3F4F8D819E81B9010E94C8268A831D
:1057F00089810E9408188F819885FC0110828A8116
:105800002896CDBFDEBFDF91CF910895CF93DF9370
:10581000CDB7DEB72897CDBFDEBF8B839C836D836A
:105820007E834F83588719828091072E882331F019
:105830008F81988522E1FC01208333C00E940518E6
:1058400089838B819C81FC018081853049F089812D
:105850000E9408188F81988521E0FC01208321C0D7
:105860008D819E810E94FB268A838A81803148F047
:1058700089810E9408188F81988523E7FC01208385
:1058800010C08B819C8105962D813E81B9010E94BB
:10589000C82689810E9408188F819885FC01108292
:1058A00000002896CDBFDEBFDF91CF9108950F9302
:1058B0001F93CF93DF93CDB7DEB76A97CDBFDEBF1F
:1058C0008A8B9B8B6C8B7D8B4E8B2F8B388F098FAC
:1058D0001A8F1A828091072E882341F0898D9A8D24
:1058E00022E0FC01208380E090E0FEC18091FA2755
:1058F000882341F0898D9A8D2DE0FC01208380E082
:1059000090E0F2C18A899B89FC018081853041F059
:10591000898D9A8D21E0FC01208380E090E0E4C134
:105920008E8980788B838B81882331F08E898F7765
:105930008E8B81E0898301C019820E9405188A83B9
:105940008E89882F90E08130910509F4EEC0823075
:10595000910524F4009709F49CC030C18230910570
:1059600029F08330910509F44CC028C18A899B89AC
:10597000FC01238134818C899D89822393238C832C
:105980009D832C813D818C899D892817390731F5AC
:105990008981813081F48A899B89FC01238134814A
:1059A0008C819D8180959095282339238A899B89B4
:1059B000FC01238334838091082E9091092E2C8141
:1059C0003D81FC01228F338F8A810E940818898DC6
:1059D0009A8DFC0110828C819D8186C18A899B8968
:1059E000AE01495F5F4F2C893D89EF89F88DBA017F
:1059F000A9012E898F010E9417308A810E94081800
:105A0000EAC08A899B89FC01238134818C899D8924
:105A1000822393238C839D838C819D81009731F118
:105A20008981813081F48A899B89FC0123813481B9
:105A30008C819D8180959095282339238A899B8923
:105A4000FC01238334838091082E9091092E2C81B0
:105A50003D81FC01228F338F8A810E940818898D35
:105A60009A8DFC0110828C819D813EC18A899B891F
:105A7000AE01495F5F4F2C893D89EF89F88DBA01EE
:105A8000A9012E898F010E9417308A810E9408186F
:105A9000A2C08A899B89FC01838194819C01209505
:105AA00030958C899D89822393238C839D832C81BF
:105AB0003D818C899D892817390721F5898181309D
:105AC00071F48A899B89FC01238134818C819D81B9
:105AD000282B392B8A899B89FC012383348380916D
